{
  "contractName": "ParcelStorage",
  "abi": [
    {
      "inputs": [
        {
          "internalType": "uint8",
          "name": "",
          "type": "uint8"
        }
      ],
      "name": "files",
      "outputs": [
        {
          "internalType": "bytes",
          "name": "",
          "type": "bytes"
        }
      ],
      "stateMutability": "view",
      "type": "function"
    },
    {
      "inputs": [],
      "name": "owner",
      "outputs": [
        {
          "internalType": "address",
          "name": "",
          "type": "address"
        }
      ],
      "stateMutability": "view",
      "type": "function"
    }
  ],
  "bytecode": "0x608060405234801561001057600080fd5b506101d3806100206000396000f3fe608060405234801561001057600080fd5b50600436106100365760003560e01c806375118e7e1461003b5780638da5cb5b146100d0575b600080fd5b61005b6004803603602081101561005157600080fd5b503560ff166100f4565b6040805160208082528351818301528351919283929083019185019080838360005b8381101561009557818101518382015260200161007d565b50505050905090810190601f1680156100c25780820380516001836020036101000a031916815260200191505b509250505060405180910390f35b6100d861018e565b604080516001600160a01b039092168252519081900360200190f35b60016020818152600092835260409283902080548451600294821615610100026000190190911693909304601f81018390048302840183019094528383529192908301828280156101865780601f1061015b57610100808354040283529160200191610186565b820191906000526020600020905b81548152906001019060200180831161016957829003601f168201915b505050505081565b6000546001600160a01b03168156fea2646970667358221220d51ad9365994b2065c3da141ebdb644d4a71fcf439fb3463b49fc0bc79c1523564736f6c634300060c0033",
  "immutableReferences": {},
  "source": "//SPDX-License-Identifier: UNLICENSED\npragma solidity ^0.6.0;\n\ncontract ParcelStorage {\n    address public owner;\n    mapping(uint8 => bytes) public files;\n}\n",
  "sourcePath": "/Users/brenfife/Desktop/parcel-contracts/contracts/ParcelStorage.sol",
  "compiler": {
    "name": "solc",
    "version": "0.6.12+commit.27d51765.Emscripten.clang"
  },
  "schemaVersion": "3.2.2",
  "updatedAt": "2020-07-24T14:08:56.926Z",
  "devdoc": {
    "kind": "dev",
    "methods": {},
    "version": 1
  },
  "userdoc": {
    "kind": "user",
    "methods": {},
    "version": 1
  }
}