{
  "contractName": "ParcelFactory",
  "abi": [
    {
      "inputs": [],
      "name": "publicResolverAddr",
      "outputs": [
        {
          "internalType": "address",
          "name": "",
          "type": "address"
        }
      ],
      "stateMutability": "view",
      "type": "function"
    },
    {
      "inputs": [
        {
          "internalType": "address",
          "name": "",
          "type": "address"
        }
      ],
      "name": "registered",
      "outputs": [
        {
          "internalType": "address",
          "name": "",
          "type": "address"
        }
      ],
      "stateMutability": "view",
      "type": "function"
    },
    {
      "inputs": [
        {
          "internalType": "bytes32",
          "name": "_node",
          "type": "bytes32"
        },
        {
          "internalType": "address",
          "name": "_newOwner",
          "type": "address"
        }
      ],
      "name": "changeENSOwner",
      "outputs": [],
      "stateMutability": "nonpayable",
      "type": "function"
    },
    {
      "inputs": [
        {
          "internalType": "bytes32",
          "name": "_node",
          "type": "bytes32"
        },
        {
          "internalType": "bytes32",
          "name": "_label",
          "type": "bytes32"
        },
        {
          "internalType": "address",
          "name": "_ownerOfSubdomain",
          "type": "address"
        }
      ],
      "name": "createSubDomain",
      "outputs": [],
      "stateMutability": "nonpayable",
      "type": "function"
    },
    {
      "inputs": [
        {
          "internalType": "bytes32",
          "name": "_node",
          "type": "bytes32"
        },
        {
          "internalType": "bytes32",
          "name": "_label",
          "type": "bytes32"
        },
        {
          "internalType": "address",
          "name": "_ownerOfSubdomain",
          "type": "address"
        }
      ],
      "name": "createSubnodeOwner",
      "outputs": [],
      "stateMutability": "nonpayable",
      "type": "function"
    },
    {
      "inputs": [
        {
          "internalType": "bytes32",
          "name": "_ownerNode",
          "type": "bytes32"
        },
        {
          "internalType": "address",
          "name": "_owner",
          "type": "address"
        }
      ],
      "name": "setAdd",
      "outputs": [],
      "stateMutability": "nonpayable",
      "type": "function"
    },
    {
      "inputs": [
        {
          "internalType": "bytes32",
          "name": "_node",
          "type": "bytes32"
        },
        {
          "internalType": "bytes32",
          "name": "_label",
          "type": "bytes32"
        },
        {
          "internalType": "bytes32",
          "name": "_ownerNode",
          "type": "bytes32"
        }
      ],
      "name": "register",
      "outputs": [
        {
          "internalType": "address",
          "name": "",
          "type": "address"
        }
      ],
      "stateMutability": "payable",
      "type": "function"
    }
  ],
  "bytecode": "0x6080604052600180546001600160a01b03199081166e0c2e074ec69a0dfb2997ba6c7d2e1e1790915560028054821673f6305c19e814d2a75429fd637d01f7ee0e77d6151790819055600380549092166001600160a01b039190911617905534801561006a57600080fd5b50610ea38061007a6000396000f3fe6080604052600436106100705760003560e01c806385aa007f1161004e57806385aa007f146101345780638a1c6cd51461016d578063b2dd5c07146101ac578063f03a1f28146101df57610070565b80634da274fd14610075578063778f3bfc146100ba5780637c0712ae146100fb575b600080fd5b61009e6004803603606081101561008b57600080fd5b50803590602081013590604001356101f4565b604080516001600160a01b039092168252519081900360200190f35b3480156100c657600080fd5b506100f9600480360360608110156100dd57600080fd5b50803590602081013590604001356001600160a01b031661043d565b005b34801561010757600080fd5b506100f96004803603604081101561011e57600080fd5b50803590602001356001600160a01b03166104c6565b34801561014057600080fd5b506100f96004803603604081101561015757600080fd5b50803590602001356001600160a01b0316610536565b34801561017957600080fd5b506100f96004803603606081101561019057600080fd5b50803590602081013590604001356001600160a01b031661058b565b3480156101b857600080fd5b5061009e600480360360208110156101cf57600080fd5b50356001600160a01b0316610619565b3480156101eb57600080fd5b5061009e610634565b600154600254604080516305ef2c7f60e41b815260048101879052602481018690523060448201526001600160a01b039283166064820152600060848201819052915191939290921691635ef2c7f09160a4808301928692919082900301818387803b15801561026357600080fd5b505af1158015610277573d6000803e3d6000fd5b50506003546040805162d5fa2b60e81b81526004810187905230602482015290516001600160a01b03909216935063d5fa2b00925060448082019260009290919082900301818387803b1580156102cd57600080fd5b505af11580156102e1573d6000803e3d6000fd5b505050506000336040516102f490610643565b6001600160a01b03909116815260405190819003602001906000f080158015610321573d6000803e3d6000fd5b503360009081526020818152604080832080546001600160a01b0319166001600160a01b0386811691821790925560015483516306ab592360e01b8152600481018d9052602481018c9052604481019290925292519596509116936306ab592393606480840194938390030190829087803b15801561039f57600080fd5b505af11580156103b3573d6000803e3d6000fd5b505050506040513d60208110156103c957600080fd5b50506040805162d5fa2b60e81b8152600481018590526001600160a01b03831660248201819052915183929163d5fa2b0091604480830192600092919082900301818387803b15801561041b57600080fd5b505af115801561042f573d6000803e3d6000fd5b509398975050505050505050565b600154600254604080516305ef2c7f60e41b815260048101879052602481018690526001600160a01b038581166044830152928316606482015260006084820181905291519290931692635ef2c7f09260a4808301939282900301818387803b1580156104a957600080fd5b505af11580156104bd573d6000803e3d6000fd5b50505050505050565b6003546040805162d5fa2b60e81b8152600481018590526001600160a01b0384811660248301529151919092169163d5fa2b0091604480830192600092919082900301818387803b15801561051a57600080fd5b505af115801561052e573d6000803e3d6000fd5b505050505050565b60015460408051635b0fc9c360e01b8152600481018590526001600160a01b03848116602483015291519190921691635b0fc9c391604480830192600092919082900301818387803b15801561051a57600080fd5b600154604080516306ab592360e01b815260048101869052602481018590526001600160a01b038481166044830152915191909216916306ab59239160648083019260209291908290030181600087803b1580156105e857600080fd5b505af11580156105fc573d6000803e3d6000fd5b505050506040513d602081101561061257600080fd5b5050505050565b6000602081905290815260409020546001600160a01b031681565b6002546001600160a01b031681565b61081d806106518339019056fe6080604052600280546001600160a01b031990811673f6305c19e814d2a75429fd637d01f7ee0e77d6151791829055600380549091166001600160a01b039290921691909117905534801561005357600080fd5b5060405161081d38038061081d83398101604081905261007291610097565b600080546001600160a01b0319166001600160a01b03929092169190911790556100c5565b6000602082840312156100a8578081fd5b81516001600160a01b03811681146100be578182fd5b9392505050565b610749806100d46000396000f3fe6080604052600436106100595760003560e01c80631fec4b4a1461006257806375118e7e146100825780638da5cb5b146100b8578063c8d18a45146100da578063d5fa2b00146100ed578063f03a1f281461010d57610060565b3661006057005b005b34801561006e57600080fd5b5061006061007d366004610582565b610122565b34801561008e57600080fd5b506100a261009d366004610567565b610178565b6040516100af919061062c565b60405180910390f35b3480156100c457600080fd5b506100cd610212565b6040516100af9190610601565b6100606100e83660046104c4565b610221565b3480156100f957600080fd5b5061006061010836600461052d565b6102e1565b34801561011957600080fd5b506100cd610348565b6000546001600160a01b031633146101555760405162461bcd60e51b815260040161014c9061067f565b60405180910390fd5b60ff831660009081526001602052604090206101729083836103a3565b50505050565b60016020818152600092835260409283902080548451600294821615610100026000190190911693909304601f810183900483028401830190945283835291929083018282801561020a5780601f106101df5761010080835404028352916020019161020a565b820191906000526020600020905b8154815290600101906020018083116101ed57829003601f168201915b505050505081565b6000546001600160a01b031681565b6000546001600160a01b0316331461024b5760405162461bcd60e51b815260040161014c9061067f565b60005b838110156102da576102d285858381811061026557fe5b905060200201602081019061027a9190610496565b84848481811061028657fe5b905060200281019061029891906106ce565b8080601f01602080910402602001604051908101604052809392919081815260200183838082843760009201919091525061035792505050565b60010161024e565b5050505050565b60035460405162d5fa2b60e81b81526001600160a01b039091169063d5fa2b00906103129085908590600401610615565b600060405180830381600087803b15801561032c57600080fd5b505af1158015610340573d6000803e3d6000fd5b505050505050565b6002546001600160a01b031681565b6001600160a01b03821661037d5760405162461bcd60e51b815260040161014c906106a6565b600080825160208401855af480156001811461039857610172565b3d806000803e806000fd5b828054600181600116156101000203166002900490600052602060002090601f016020900481019282601f106103e45782800160ff19823516178555610411565b82800160010185558215610411579182015b828111156104115782358255916020019190600101906103f6565b5061041d929150610421565b5090565b5b8082111561041d5760008155600101610422565b60008083601f840112610447578182fd5b50813567ffffffffffffffff81111561045e578182fd5b602083019150836020808302850101111561047857600080fd5b9250929050565b803560ff8116811461049057600080fd5b92915050565b6000602082840312156104a7578081fd5b81356001600160a01b03811681146104bd578182fd5b9392505050565b600080600080604085870312156104d9578283fd5b843567ffffffffffffffff808211156104f0578485fd5b6104fc88838901610436565b90965094506020870135915080821115610514578384fd5b5061052187828801610436565b95989497509550505050565b6000806040838503121561053f578182fd5b8235915060208301356001600160a01b038116811461055c578182fd5b809150509250929050565b600060208284031215610578578081fd5b6104bd838361047f565b600080600060408486031215610596578283fd5b6105a0858561047f565b9250602084013567ffffffffffffffff808211156105bc578384fd5b818601915086601f8301126105cf578384fd5b8135818111156105dd578485fd5b8760208285010111156105ee578485fd5b6020830194508093505050509250925092565b6001600160a01b0391909116815260200190565b9182526001600160a01b0316602082015260400190565b6000602080835283518082850152825b818110156106585785810183015185820160400152820161063c565b818111156106695783604083870101525b50601f01601f1916929092016040019392505050565b6020808252600d908201526c2737ba103a34329027bbb732b960991b604082015260600190565b6020808252600e908201526d1d185c99d95d0b5a5b9d985b1a5960921b604082015260600190565b6000808335601e198436030181126106e4578283fd5b83018035915067ffffffffffffffff8211156106fe578283fd5b60200191503681900382131561047857600080fdfea2646970667358221220a7e00c0bb036063367cb38dc1fb5903401290442542d197798b40c0a9ef2566364736f6c634300060c0033a2646970667358221220a1411fc2f3c79f93ba43dcda5e22d1e5281dbc603d52f14ac356655e41193a9264736f6c634300060c0033",
  "immutableReferences": {},
  "source": "//SPDX-License-Identifier: UNLICENSED\npragma solidity ^0.6.0;\n\nimport \"@openzeppelin/contracts/math/SafeMath.sol\";\nimport \"./ParcelProxy.sol\";\nimport \"./interfaces/IENS.sol\";\n\ncontract ParcelFactory {\n    using SafeMath for uint256;\n\n    mapping(address => address) public registered;\n    ENS ENSRegistry = ENS(0x00000000000C2E074eC69A0dFb2997BA6C7d2e1e);\n    address\n        public publicResolverAddr = 0xf6305c19e814d2a75429Fd637d01F7ee0E77d615;\n    PublicResolver ENSResolver = PublicResolver(publicResolverAddr);\n\n    // modifier oneAccount {\n    //     require(registered[msg.sender] == address(0), \"account exists\");\n    //     _;\n    // }\n    function changeENSOwner(bytes32 _node, address _newOwner) external {\n        ENSRegistry.setOwner(_node, _newOwner);\n    }\n\n    function createSubDomain(\n        bytes32 _node,\n        bytes32 _label,\n        address _ownerOfSubdomain\n    ) external {\n        ENSRegistry.setSubnodeOwner(_node, _label, _ownerOfSubdomain);\n    }\n\n    function createSubnodeOwner(\n        bytes32 _node,\n        bytes32 _label,\n        address _ownerOfSubdomain\n    ) external {\n        ENSRegistry.setSubnodeRecord(\n            _node,\n            _label,\n            _ownerOfSubdomain,\n            publicResolverAddr,\n            0\n        );\n    }\n\n    function setAdd(bytes32 _ownerNode, address _owner) external {\n        ENSResolver.setAddr(_ownerNode, _owner);\n    }\n\n    function register(\n        bytes32 _node,\n        bytes32 _label,\n        bytes32 _ownerNode\n    ) external payable returns (address) {\n        ENSRegistry.setSubnodeRecord(\n            _node,\n            _label,\n            address(this),\n            publicResolverAddr,\n            0\n        );\n        ENSResolver.setAddr(_ownerNode, address(this));\n\n        ParcelProxy newAccount = new ParcelProxy(msg.sender);\n        registered[msg.sender] = address(newAccount);\n\n        ENSRegistry.setSubnodeOwner(_node, _label, address(newAccount));\n\n        PublicResolver myAccount = PublicResolver(address(newAccount));\n        myAccount.setAddr(_ownerNode, address(newAccount));\n\n        return address(newAccount);\n    }\n}\n",
  "sourcePath": "/Users/brenfife/Desktop/parcel-contracts/contracts/ParcelFactory.sol",
  "compiler": {
    "name": "solc",
    "version": "0.6.12+commit.27d51765.Emscripten.clang"
  },
  "schemaVersion": "3.2.2",
  "updatedAt": "2020-07-24T14:08:56.922Z",
  "devdoc": {
    "kind": "dev",
    "methods": {},
    "version": 1
  },
  "userdoc": {
    "kind": "user",
    "methods": {},
    "version": 1
  }
}