{
  "contractName": "ParcelProxy",
  "abi": [
    {
      "inputs": [
        {
          "internalType": "address",
          "name": "_owner",
          "type": "address"
        }
      ],
      "stateMutability": "nonpayable",
      "type": "constructor"
    },
    {
      "stateMutability": "payable",
      "type": "fallback"
    },
    {
      "inputs": [
        {
          "internalType": "uint8",
          "name": "",
          "type": "uint8"
        }
      ],
      "name": "files",
      "outputs": [
        {
          "internalType": "bytes",
          "name": "",
          "type": "bytes"
        }
      ],
      "stateMutability": "view",
      "type": "function"
    },
    {
      "inputs": [],
      "name": "owner",
      "outputs": [
        {
          "internalType": "address",
          "name": "",
          "type": "address"
        }
      ],
      "stateMutability": "view",
      "type": "function"
    },
    {
      "inputs": [],
      "name": "publicResolverAddr",
      "outputs": [
        {
          "internalType": "address",
          "name": "",
          "type": "address"
        }
      ],
      "stateMutability": "view",
      "type": "function"
    },
    {
      "stateMutability": "payable",
      "type": "receive"
    },
    {
      "inputs": [
        {
          "internalType": "bytes32",
          "name": "node",
          "type": "bytes32"
        },
        {
          "internalType": "address",
          "name": "addr",
          "type": "address"
        }
      ],
      "name": "setAddr",
      "outputs": [],
      "stateMutability": "nonpayable",
      "type": "function"
    },
    {
      "inputs": [
        {
          "internalType": "address[]",
          "name": "targets",
          "type": "address[]"
        },
        {
          "internalType": "bytes[]",
          "name": "data",
          "type": "bytes[]"
        }
      ],
      "name": "execute",
      "outputs": [],
      "stateMutability": "payable",
      "type": "function"
    },
    {
      "inputs": [
        {
          "internalType": "uint8",
          "name": "index",
          "type": "uint8"
        },
        {
          "internalType": "bytes",
          "name": "hash",
          "type": "bytes"
        }
      ],
      "name": "addFile",
      "outputs": [],
      "stateMutability": "nonpayable",
      "type": "function"
    }
  ],
  "bytecode": "0x6080604052600280546001600160a01b031990811673f6305c19e814d2a75429fd637d01f7ee0e77d6151791829055600380549091166001600160a01b039290921691909117905534801561005357600080fd5b5060405161081d38038061081d83398101604081905261007291610097565b600080546001600160a01b0319166001600160a01b03929092169190911790556100c5565b6000602082840312156100a8578081fd5b81516001600160a01b03811681146100be578182fd5b9392505050565b610749806100d46000396000f3fe6080604052600436106100595760003560e01c80631fec4b4a1461006257806375118e7e146100825780638da5cb5b146100b8578063c8d18a45146100da578063d5fa2b00146100ed578063f03a1f281461010d57610060565b3661006057005b005b34801561006e57600080fd5b5061006061007d366004610582565b610122565b34801561008e57600080fd5b506100a261009d366004610567565b610178565b6040516100af919061062c565b60405180910390f35b3480156100c457600080fd5b506100cd610212565b6040516100af9190610601565b6100606100e83660046104c4565b610221565b3480156100f957600080fd5b5061006061010836600461052d565b6102e1565b34801561011957600080fd5b506100cd610348565b6000546001600160a01b031633146101555760405162461bcd60e51b815260040161014c9061067f565b60405180910390fd5b60ff831660009081526001602052604090206101729083836103a3565b50505050565b60016020818152600092835260409283902080548451600294821615610100026000190190911693909304601f810183900483028401830190945283835291929083018282801561020a5780601f106101df5761010080835404028352916020019161020a565b820191906000526020600020905b8154815290600101906020018083116101ed57829003601f168201915b505050505081565b6000546001600160a01b031681565b6000546001600160a01b0316331461024b5760405162461bcd60e51b815260040161014c9061067f565b60005b838110156102da576102d285858381811061026557fe5b905060200201602081019061027a9190610496565b84848481811061028657fe5b905060200281019061029891906106ce565b8080601f01602080910402602001604051908101604052809392919081815260200183838082843760009201919091525061035792505050565b60010161024e565b5050505050565b60035460405162d5fa2b60e81b81526001600160a01b039091169063d5fa2b00906103129085908590600401610615565b600060405180830381600087803b15801561032c57600080fd5b505af1158015610340573d6000803e3d6000fd5b505050505050565b6002546001600160a01b031681565b6001600160a01b03821661037d5760405162461bcd60e51b815260040161014c906106a6565b600080825160208401855af480156001811461039857610172565b3d806000803e806000fd5b828054600181600116156101000203166002900490600052602060002090601f016020900481019282601f106103e45782800160ff19823516178555610411565b82800160010185558215610411579182015b828111156104115782358255916020019190600101906103f6565b5061041d929150610421565b5090565b5b8082111561041d5760008155600101610422565b60008083601f840112610447578182fd5b50813567ffffffffffffffff81111561045e578182fd5b602083019150836020808302850101111561047857600080fd5b9250929050565b803560ff8116811461049057600080fd5b92915050565b6000602082840312156104a7578081fd5b81356001600160a01b03811681146104bd578182fd5b9392505050565b600080600080604085870312156104d9578283fd5b843567ffffffffffffffff808211156104f0578485fd5b6104fc88838901610436565b90965094506020870135915080821115610514578384fd5b5061052187828801610436565b95989497509550505050565b6000806040838503121561053f578182fd5b8235915060208301356001600160a01b038116811461055c578182fd5b809150509250929050565b600060208284031215610578578081fd5b6104bd838361047f565b600080600060408486031215610596578283fd5b6105a0858561047f565b9250602084013567ffffffffffffffff808211156105bc578384fd5b818601915086601f8301126105cf578384fd5b8135818111156105dd578485fd5b8760208285010111156105ee578485fd5b6020830194508093505050509250925092565b6001600160a01b0391909116815260200190565b9182526001600160a01b0316602082015260400190565b6000602080835283518082850152825b818110156106585785810183015185820160400152820161063c565b818111156106695783604083870101525b50601f01601f1916929092016040019392505050565b6020808252600d908201526c2737ba103a34329027bbb732b960991b604082015260600190565b6020808252600e908201526d1d185c99d95d0b5a5b9d985b1a5960921b604082015260600190565b6000808335601e198436030181126106e4578283fd5b83018035915067ffffffffffffffff8211156106fe578283fd5b60200191503681900382131561047857600080fdfea2646970667358221220a7e00c0bb036063367cb38dc1fb5903401290442542d197798b40c0a9ef2566364736f6c634300060c0033",
  "immutableReferences": {},
  "source": "//SPDX-License-Identifier: UNLICENSED\npragma solidity ^0.6.0;\npragma experimental ABIEncoderV2;\n\nimport \"@openzeppelin/contracts/math/SafeMath.sol\";\nimport \"./ParcelStorage.sol\";\n\ninterface PublicResolver {\n    function setAddr(bytes32 node, address addr) external;\n}\n\ncontract ParcelProxy is ParcelStorage {\n    using SafeMath for uint256;\n\n    address\n        public publicResolverAddr = 0xf6305c19e814d2a75429Fd637d01F7ee0E77d615;\n    PublicResolver ENSResolver = PublicResolver(publicResolverAddr);\n\n    constructor(address _owner) public {\n        owner = _owner;\n    }\n\n    function setAddr(bytes32 node, address addr) external {\n        ENSResolver.setAddr(node, addr);\n    }\n\n    modifier onlyOwner {\n        require(msg.sender == owner, \"Not the Owner\");\n        _;\n    }\n\n    /**\n     * @dev Delegate the calls to Connector And this function is ran by cast().\n     * @param _target Target to of Connector.\n     * @param _data CallData of function in Connector.\n     */\n    function _call(address _target, bytes memory _data) internal {\n        require(_target != address(0), \"target-invalid\");\n        assembly {\n            let succeeded := delegatecall(\n                gas(),\n                _target,\n                add(_data, 0x20),\n                mload(_data),\n                0,\n                0\n            )\n\n            switch iszero(succeeded)\n                case 1 {\n                    // throw if delegatecall failed\n                    let size := returndatasize()\n                    returndatacopy(0x00, 0x00, size)\n                    revert(0x00, size)\n                }\n        }\n    }\n\n    /**\n     * @dev This is the main function\n     * @param targets Array of Target(s) to of Implementation.\n     * @param data Array of Calldata(s) of function.\n     */\n    function execute(address[] calldata targets, bytes[] calldata data)\n        external\n        payable\n        onlyOwner\n    {\n        for (uint256 i = 0; i < targets.length; i++) {\n            _call(targets[i], data[i]);\n        }\n    }\n\n    function addFile(uint8 index, bytes calldata hash) external onlyOwner {\n        files[index] = hash;\n    }\n\n    receive() external payable {}\n\n    fallback() external payable {}\n}\n",
  "sourcePath": "/Users/brenfife/Desktop/parcel-contracts/contracts/ParcelProxy.sol",
  "compiler": {
    "name": "solc",
    "version": "0.6.12+commit.27d51765.Emscripten.clang"
  },
  "schemaVersion": "3.2.2",
  "updatedAt": "2020-07-24T14:08:56.923Z",
  "devdoc": {
    "kind": "dev",
    "methods": {
      "execute(address[],bytes[])": {
        "details": "This is the main function",
        "params": {
          "data": "Array of Calldata(s) of function.",
          "targets": "Array of Target(s) to of Implementation."
        }
      }
    },
    "version": 1
  },
  "userdoc": {
    "kind": "user",
    "methods": {},
    "version": 1
  }
}